:100000000C9463000C948B000C948B000C9496035E
:100010000C9496030C9496030C948B000C948B0018
:100020000C948B000C948B000C948B000C948B0024
:100030000C948B000C948B000C948B000C948B0014
:100040000C94F4020C948B000C9464030C943E0307
:100050000C948B000C948B000C948B000C948B00F4
:100060000C948B000C948B000000000024002700EF
:100070002A0000000008000201000003040700003D
:1000800000000000000000000000230026002900FE
:1000900000000000250028002B00040404040404D0
:1000A0000404020202020202030303030303010227
:1000B00004081020408001020408102001020408F6
:1000C00010203F04640611241FBECFEFD8E0DEBF2E
:1000D000CDBF11E0A0E0B1E0E0E8FDE002C0059096
:1000E0000D92A033B107D9F722E0A0E3B1E001C03F
:1000F0001D92AE33B207E1F710E0C2E6D0E004C0D3
:100100002197FE010E94A806C136D107C9F70E94B7
:10011000EA040C94B3060C940000833081F028F4B8
:10012000813099F08230A1F008958730A9F08830AD
:10013000B9F08430D1F4809180008F7D03C080912C
:1001400080008F7780938000089584B58F7702C0F8
:1001500084B58F7D84BD08958091B0008F7703C0F2
:100160008091B0008F7D8093B0000895CF93DF938E
:10017000282F30E0F901EE58FF4F8491F901E25544
:10018000FF4FD491F901E656FF4FC491CC2391F073
:1001900081110E948D00EC2FF0E0EE0FFF1FEA5757
:1001A000FF4FA591B491EC91ED2381E090E021F413
:1001B00080E002C080E090E0DF91CF910895CF937E
:1001C000DF9390E0FC01E255FF4F2491FC01E656DD
:1001D000FF4F8491882361F190E0880F991FFC0103
:1001E000E859FF4FC591D491FC01E057FF4FA5910D
:1001F000B491611109C09FB7F8948881209582233A
:100200008883EC912E230BC0623061F49FB7F89481
:100210008881322F309583238883EC912E2B2C9369
:100220009FBF06C08FB7F894E8812E2B28838FBF1D
:10023000DF91CF9108953FB7F89480917E0190911E
:100240007F01A0918001B091810126B5A89B05C0D6
:100250002F3F19F00196A11DB11D3FBFBA2FA92F45
:10026000982F8827820F911DA11DB11DBC01CD01C2
:1002700042E0660F771F881F991F4A95D1F70895AE
:10028000CF92DF92EF92FF920F931F93CF93DF9362
:100290006C017A018B01C0E0D0E0CE15DF0581F062
:1002A000D8016D918D01D601ED91FC910190F08105
:1002B000E02DC6010995892B11F02196EECF7E0124
:1002C000C701DF91CF911F910F91FF90EF90DF90C9
:1002D000CF900895FC01538D448D252F30E0842F5D
:1002E00090E0821B930B541710F0CF96089501975E
:1002F0000895FC01918D828D981761F0828DDF0148
:10030000A80FB11D5D968C91928D9F5F9F73928F08
:1003100090E008958FEF9FEF0895FC01918D828DFD
:10032000981731F0828DE80FF11D858D90E00895CA
:100330008FEF9FEF0895FC01918D228D892F90E022
:10034000805C9F4F821B91098F739927089582E8E3
:1003500091E00E949B0121E0892B09F420E0822F8B
:100360000895FC01848DDF01A80FB11DA35ABF4F72
:100370002C91848D90E001968F739927848FA689A4
:10038000B7892C93A089B1898C91837080648C93F8
:10039000938D848D981306C00288F389E02D8081A7
:1003A0008F7D80830895EF92FF920F931F93CF93D9
:1003B000DF93EC0181E0888F9B8D8C8D981305C0B5
:1003C000E889F989808185FD26C0F62E0B8D10E025
:1003D0000F5F1F4F0F731127E02E8C8DE8120CC09A
:1003E0000FB607FCFACFE889F989808185FFF5CF40
:1003F000CE010E94B101F1CF8B8DFE01E80FF11DFE
:10040000E35AFF4FF0829FB7F8940B8FEA89FB897C
:10041000808180620AC09FB7F894EE89FF8960836B
:10042000E889F98980818370806480839FBF81E03F
:1004300090E0DF91CF911F910F91FF90EF90089581
:10044000CF93DF93EC01888D8823C9F0EA89FB897B
:10045000808185FD05C0A889B9898C9186FD0FC072
:100460000FB607FCF5CF808185FFF2CFA889B98947
:100470008C9185FFEDCFCE010E94B101E7CFDF91D6
:10048000CF91089580E090E0892B29F00E94A70188
:1004900081110C9400000895209172013091730134
:1004A0002817390771F490917001809171019817A4
:1004B00041F0E0917001F0E0E05DFE4F808190E05E
:1004C00008958FEF9FEF089508951F93CF93DF93C3
:1004D000DC015C968D919C915D97009739F421E049
:1004E00030E013963C932E9312973BC05196ED91BA
:1004F000FC91529750962C915097322F30951FB700
:100500005E964C915E97742F727041FD6095F894E1
:100510004081772311F0422B01C043234083EC013B
:100520002197F1F748E0508160FF02C0522B01C0D3
:1005300053235083EC012197F1F76695415099F7C9
:100540008081772319F08323808302C0282B2083A6
:100550001FBF5C968D919C915D970197F1F781E0AB
:1005600090E0DF91CF911F91089520917201309119
:1005700073012817390771F480917101209170017E
:1005800090E0805C9F4F821B910960E470E00E94C4
:100590008006089580E090E00895209172013091E6
:1005A000730128173907B9F4909170018091710196
:1005B000981789F0E0917001F0E0E05DFE4F8081D6
:1005C0002091700130E02F5F3F4F2F73332720932E
:1005D000700190E008958FEF9FEF0895089580E0F7
:1005E00090E008950E94AE061F920F920FB60F92F0
:1005F00011242F933F938F939F93AF93BF93809139
:100600007A0190917B01A0917C01B0917D013091A4
:10061000790123E0230F2D3720F40196A11DB11D90
:1006200005C026E8230F0296A11DB11D2093790174
:1006300080937A0190937B01A0937C01B0937D011C
:1006400080917E0190917F01A0918001B091810104
:100650000196A11DB11D80937E0190937F01A0930F
:100660008001B0938101BF91AF919F918F913F9194
:100670002F910F900FBE0F901F9018951F920F9201
:100680000FB60F9211242F933F934F935F936F9365
:100690007F938F939F93AF93BF93EF93FF9382E8E2
:1006A00091E00E94B101FF91EF91BF91AF919F91B5
:1006B0008F917F916F915F914F913F912F910F900B
:1006C0000FBE0F901F9018951F920F920FB60F92AA
:1006D00011242F938F939F93EF93FF93E0919201B7
:1006E000F09193018081E0919801F091990182FD50
:1006F00012C0908180919B018F5F8F7320919C012C
:10070000821751F0E0919B01F0E0EE57FE4F958F7C
:1007100080939B0101C08081FF91EF919F918F9108
:100720002F910F900FBE0F901F9018951F920F9250
:100730000FB60F9211242F933F934F935F936F93B4
:100740007F938F939F93AF93BF93EF93FF93E0912A
:100750007201F0917301309709F451C0968DA6850E
:10076000B785858591FF04C09C91892329F447C0F2
:100770009C91892309F043C0A389B4899C91858900
:10078000809589238C93868997890197F1F7608DED
:10079000718DA685B785558538E020E0CB0101979E
:1007A000F1F7822F90E095958795282F4C9145235E
:1007B00009F02068315091F7868D81FD2095809158
:1007C000710190E001968F7399273091700138176D
:1007D00049F0A0917101B0E0A05DBE4F2C938093D1
:1007E000710103C0868D8160868F828D938D019704
:1007F000F1F7A389B4899C918589892B8C93FF910A
:10080000EF91BF91AF919F918F917F916F915F9188
:100810004F913F912F910F900FBE0F901F90189501
:100820001F93CF93DF93282F30E0F901EE58FF4F4D
:100830008491F901E255FF4FD491F901E656FF4F3B
:10084000C491CC23C1F0162F81110E948D00EC2F92
:10085000F0E0EE0FFF1FE057FF4FA591B4919FB757
:10086000F894111104C08C91D095D82302C0EC915A
:10087000DE2BDC939FBFDF91CF911F9108951092E3
:1008800085011092840188EE93E0A0E0B0E08093AF
:10089000860190938701A0938801B093890124E099
:1008A00031E0309383012093820125EC30E03093D6
:1008B0008F0120938E0124EC30E03093910120933E
:1008C000900120EC30E0309393012093920121ECD1
:1008D00030E0309395012093940122EC30E0309386
:1008E00097012093960126EC30E0309399012093F4
:1008F000980110929B0110929C0110929D01109200
:100900009E01109222021092210280932302909362
:100910002402A0932502B093260286E191E09093F1
:10092000200280931F02109236021092350210921C
:1009300038021092370210923A0210923902109245
:100940003C0210923B0260913D026E7F6D7F60938E
:100950003D026695617081E0682783E00E94100483
:1009600061E083E00E94DF00E1EBF0E0E491E093DE
:100970002F02EDE9F0E0E491F0E0EE0FFF1FE05709
:10098000FF4F85919491909331028093300260E003
:1009900082E00E94DF0080913D0281FD04C061E0A1
:1009A00082E00E94100482E080932B02E0EBF0E0F2
:1009B000E491E0932C02ECE9F0E0E491F0E0EE0F3A
:1009C000FF1FEA57FF4F8591949190932E028093D9
:1009D0002D020895789484B5826084BD84B58160C9
:1009E00084BD85B5826085BD85B5816085BD8091FA
:1009F0006E00816080936E00109281008091810072
:100A00008260809381008091810081608093810069
:100A1000809180008160809380008091B10084602B
:100A20008093B1008091B00081608093B00080918C
:100A30007A00846080937A0080917A00826080934B
:100A40007A0080917A00816080937A0080917A00A8
:100A5000806880937A001092C10010923A0210923E
:100A60003902109238021092370210923602109218
:100A700035028DE991E090933C0280933B02909186
:100A80002B02963108F058C02DEB30E0309336023F
:100A9000209335022BE931E030933802209337025E
:100AA0002CE231E030933A02209339024091680001
:100AB000983058F031E09E3008F430E021E0822F89
:100AC00001C0880F3A95EAF701C084E0842B809337
:100AD0006800983038F09E3040F0963148F020E0C1
:100AE00030E008C02DE630E005C02BE630E002C063
:100AF0002CE630E03093330220933202983030F409
:100B000081E001C0880F9A95EAF70EC0292F30E0E6
:100B10009E3018F42850310902C02E50310981E06E
:100B200001C0880F2A95EAF78093340280913B0236
:100B300090913C020197F1F78091390290913A022D
:100B4000892B49F1E0917201F091730122E0EF31BC
:100B5000F20709F1309739F0A389B4899C9185890E
:100B6000809589238C9380913D028E7F80933D02F6
:100B700010927101109270018FE192E090937301D5
:100B800080937201E0913202F09133029081809162
:100B90003402892B8083E0919201F091930182E0ED
:100BA0008083E0918E01F0918F011082E09190019D
:100BB000F09191018FEC808310929A01E09196015F
:100BC000F091970186E08083E0919401F091950186
:100BD000808180618083E0919401F0919501808112
:100BE00088608083E0919401F09195018081806814
:100BF0008083E0919401F091950180818F7D8083C5
:100C000060E08BE00E94DF00C0E3D1E312E38BE001
:100C10000E94B6007C01909378018093770189E06F
:100C20000E94B6009093760180937501C093740181
:100C3000EA94EF2891F4D093740148E050E064E224
:100C400071E082E891E00E94400142E050E06DE2F4
:100C500071E082E891E00E944001809175019091DD
:100C60007601019711F410937401609174018FE182
:100C700092E00E9465020E941B014B015C0182E32D
:100C8000C82ED12CE12CF12C0E941B01DC01CB01E0
:100C900088199909AA09BB09883E9340A105B105A5
:100CA00098F321E0C21AD108E108F10888EE880E15
:100CB00083E0981EA11CB11CC114D104E104F1040D
:100CC00019F70E944202A3CF86E191E0909320029F
:100CD00080931F0280917201909173018F51924015
:100CE00071F4E0913202F0913302908180913402EC
:100CF0008095892380831092730110927201089568
:100D000097FB072E16F4009407D077FD09D00E94B8
:100D1000940607FC05D03EF4909581959F4F089569
:100D2000709561957F4F0895AA1BBB1B51E107C0C9
:100D3000AA1FBB1FA617B70710F0A61BB70B881F6B
:100D4000991F5A95A9F780959095BC01CD010895FA
:100D5000EE0FFF1F0590F491E02D099481E090E0E3
:100D6000F8940C94B30610E0C2E6D0E004C0FE0193
:100D70000E94A8062196C336D107C9F7F894FFCF81
:100D800000000000D30140016A0120029B017901AB
:100D90008D010000000065024001EF026402B5020F
:100DA000CD024C02627574746F6E6F6E000D0A0096
:00000001FF
